:100000000C9434000C94F9030C944F000C944F00A2
:100010000C944F000C944F000C944F000C944F0024
:100020000C944F000C944F000C944F000C94D2038E
:100030000C944F000C944F000C944F000C944F0004
:100040000C944F000C944F000C947E030C944F00C2
:100050000C944F000C944F000C944F000C944F00E4
:100060000C944F000C944F0011241FBECFEFD1E031
:10007000DEBFCDBF12E0A0E0B1E0EAE1F9E002C0EE
:1000800005900D92AA31B107D9F712E0AAE1B2E0CA
:1000900001C01D92A936B107E1F70E9467000C94D8
:1000A0000000FC0180910002909101029183808305
:1000B0000895FC0180819181909301028093000258
:1000C00008950E94FB0208950E94FA0208950E947A
:1000D000FC020E94A0000E943903089589E492E086
:1000E000909324028093230280914A028F5F809331
:1000F0003602109266020E946A0308951F930E94BE
:100100006603182F80911F0290912002A091210276
:10011000B09122020097A105B10569F080FF0BC0E4
:100120008E7F80931F0290932002A0932102B093B0
:1001300022020E946E00812F0E9478031F91089571
:100140000E94420410922902109228021092260264
:100150001092250210922A02109227021092360263
:1001600010926602109245021092350210921B0204
:1001700010921C0210921D0210921E0210921F0279
:1001800010922002109221021092220281E08093AC
:100190001A02089580914C02813051F180911A0227
:1001A000882309F408951092490284E080934B0259
:1001B00080934A020E946603282F80912802909122
:1001C0002902892BD1F080911F0290912002A091E9
:1001D0002102B0912202816080931F02909320023D
:1001E000A0932102B0932202822F0E9478030895E7
:1001F0008EE492E00E945900D1CF80911F0290912D
:100200002002A0912102B09122020097A105B10520
:1002100011F7822F0E94780389E492E090932402E0
:100220008093230280914A028F5F8093360210925E
:1002300066020E946A03089580914C02813059F150
:1002400094E080911A02882309F4089510924902DB
:1002500082E080934B0290934A020E946603282F0B
:100260008091280290912902892BD9F080911F0258
:1002700090912002A0912102B0912202816080938E
:100280001F0290932002A0932102B0932202822F9A
:100290000E94780308958EE492E00E94510096E057
:1002A000D0CF80911F0290912002A0912102B091A5
:1002B00022020097A105B10509F7822F0E94780359
:1002C00089E492E0909324028093230280914A0271
:1002D0008F5F80933602109266020E946A0308952F
:1002E00080914C028B3F41F410921B0210921C0231
:1002F00010921D0210921E0280911A02882309F4A6
:1003000008951092490284E080934B0280934A0240
:100310000E946603282F8091280290912902892B40
:10032000A9F080911F0290912002A0912102B0912A
:100330002202816080931F0290932002A0932102E9
:10034000B0932202822F0E947803089580911F02A9
:1003500090912002A0912102B09122020097A10564
:10036000B10539F7822F0E94780389E492E09093D7
:1003700024028093230280914A028F5F8093360289
:10038000109266020E946A03089580914C028A3F8F
:1003900009F4A1C08B3F58F08C3F09F446C08D3F53
:1003A000E1F194E080911A02882389F40895853F51
:1003B00009F453C0893FA9F781E080934E0289E098
:1003C00080934F0296E080911A02882379F310926D
:1003D000490282E080934B0290934A020E94660396
:1003E000282F8091280290912902892B09F483C03B
:1003F00080911F0290912002A0912102B0912202CF
:10040000816080931F0290932002A0932102B093F9
:100410002202822F0E94780308958DE090E090934D
:100420004F0280934E0296E0BDCF84E980934E0246
:100430008DEF80934F0287EA809350028AE2809387
:10044000510282E48093520281E080935302109221
:100450005402109255029CE0A5CFE0912B02F0913E
:100460002C02309709F49DCF808180934E0288231F
:1004700009F46DC0818180934F02882309F46AC01A
:10048000828180935002882309F467C0838180931E
:100490005102882309F464C0848180935202882326
:1004A00009F464C0858180935302882309F45BC0FA
:1004B000868180935402882309F45BC087818093EE
:1004C0005502882309F458C08085809356028823FA
:1004D00091F19DE067CFE4E0F2E0AEE4B2E081911B
:1004E0008D9382E0E731F807D1F78091170280936E
:1004F000610298E157CF80911F0290912002A09154
:100500002102B09122020097A105B10509F078CF30
:10051000822F0E94780389E492E0909324028093D2
:10052000230280914A028F5F809336021092660206
:100530000E946A03089588E090E0FC01E25BFD4FB1
:10054000119282E0E735F807D9F79DE02BCF80E0E4
:1005500090E0F3CF81E090E0F0CF82E090E0EDCF4B
:1005600083E090E0EACF85E090E0E7CF84E090E0A0
:10057000E4CF86E090E0E1CF87E090E0DECF8091AD
:100580001A02882351F080914B02863091F0873017
:1005900028F08730E1F08A3091F008958130E9F059
:1005A0008330D9F780914C0287FD1EC00E94CA009B
:1005B000089583E080931A020E9464000895E091F8
:1005C0006202F0916302309741F30995089582E049
:1005D00080931A020E946100089580914C0287FD69
:1005E00006C00E941C0108950E94700108950E9497
:1005F000C5010895089508952D985E985D985F98B7
:1006000028982A985B9840984198239A2B98249A86
:100610002C98219A29982B9A2B982A98259A389ABF
:10062000569A559A579A209A539A549A399A229AD6
:1006300052985A9AE9E6F0E08081836080833B9A81
:10064000439A10928000109281001092C50088E0B9
:100650008093C400E1ECF0E080818861808386E0D3
:100660008093C2008FEB92E0909334028093330228
:100670000895CF93DF937894F894C0912D02D09190
:100680002E0210922E0210922D022097E9F07894FB
:10069000C0FF07C0E0912F02F0913002309709F0BF
:1006A0000995C1FF07C0E0913102F0913202309705
:1006B00009F00995C2FFE0CFE0913302F0913402D6
:1006C0003097D1F20995D8CF7894D6CF8FB7F894D8
:1006D000807808958091230290912402019690934E
:1006E00029028093280210922A021092C6000895CF
:1006F000882311F4F8940895789408951F920F9226
:100700000FB60F9211242F938F939F93EF93FF9324
:100710008091250290912602892BD9F19091C600F3
:1007200080912702882381F4992361F44398439AA6
:10073000FF91EF919F918F912F910F900FBE0F908E
:100740001F90189590932702E0912502F0912602C0
:100750009193F0932602E093250280912702815025
:1007600080932702882311F7109226021092250207
:100770002FB7F89480912D0290912E02846090936F
:100780002E0280932D0227FD02C0F894CFCF7894DB
:10079000CDCF809102029091030290932602809324
:1007A0002502BCCF1F920F920FB60F9211242F93E8
:1007B0008F939F932FB7F89480912D0290912E02E2
:1007C000826090932E0280932D0227FD09C0F89439
:1007D0009F918F912F910F900FBE0F901F901895A2
:1007E00078949F918F912F910F900FBE0F901F9033
:1007F00018951F920F920FB60F9211242F933F93CB
:100800004F935F936F937F938F939F93AF93BF9318
:10081000EF93FF93E0912802F0912902309781F045
:1008200080912A028823F1F0815080932A02882344
:1008300001F18191F0932902E09328028093C60090
:10084000E09AFF91EF91BF91AF919F918F917F912E
:100850006F915F914F913F912F910F900FBE0F902D
:100860001F90189580818F5F815080932A02882382
:1008700001F71092290210922802109236020E946B
:100880007E00DECF4FB7F894439820E030E080E060
:1008900090E00000000000000000000000000000E8
:1008A00000000000000000000000019653E0883EB8
:1008B000950779F72F5F3F4F2436310541F7439A6B
:1008C00020E030E080E090E0000000000000000048
:1008D0000000000000000000000000000000000018
:1008E000019653E0883E950779F72F5F3F4F81E0EF
:1008F000243F380739F78091C00080688093C0009A
:10090000E09A8091C10080688093C100E89A47FD19
:0A09100002C0F89408957894089549
:10091A0000000000000000000000000000000000CD
:10092A0000000000000000000000000000000000BD
:10093A0000000000000000000000000000000000AD
:10094A00000000000000000000000000000000009D
:10095A00000000000000000000000000000000008D
:10096A00000000000000000000000000000000007D
:10097A00000000000000000000000000000000006D
:10098A00000000000000000000000000000000005D
:10099A00000000000000000000000000000000004D
:1009AA00000000000000000000000000000000003D
:1009BA00000000000000000000000000000000002D
:1009CA00000000000000000000000000000000001D
:1009DA00000000000000000000000000000000000D
:1009EA0000000000000000000000000000000000FD
:1009FA0000000000000000000000000000000000ED
:100A0A0000000000000000000000000000000000DC
:100A1A00D8FF4A027CDE18C987F423C50EAA15112D
:0A0A2A0054E0DCBD0D0011000100D6
:040000030000006891
:00000001FF
