:100000000C9434000C9465060C944F000C944F0033
:100010000C944F000C944F000C944F000C944F0024
:100020000C944F000C944F000C944F000C943E061F
:100030000C944F000C944F000C944F000C944F0004
:100040000C944F000C944F000C94EA050C944F0054
:100050000C944F000C944F000C944F000C944F00E4
:100060000C944F000C944F0011241FBECFEFD1E031
:10007000DEBFCDBF12E0A0E0B1E0E0E4FEE002C0F0
:1000800005900D92A234B107D9F712E0A2E4B2E0D4
:1000900001C01D92AA39B107E1F70E94AE000C948D
:1000A0000000FC01808180934602882361F4109255
:1000B000480210924702109243021092420210929C
:1000C0004A02109249020895FC01809142029091E7
:1000D0004302918380830895FC01808191819093F4
:1000E000430280934202009791F0019764E070E030
:1000F0000E94F906FC01EE0FFF1FE050FE4F019039
:10010000F081E02DF0934502E09344020895E0E091
:10011000F0E0F0934502E09344020895FC018091E1
:10012000080290910902918380830895FC018081E7
:100130009181909309028093080208950F931F9371
:100140008C010E94A205F80180831F910F910895F0
:100150000E94C20408950E94C10408950E94C3042D
:1001600084E690E06BEB70E00E94B3050E9405020C
:100170000E9401050895CF93DF938091460281305C
:1001800009F482C020914702309148028091080210
:10019000909109022817390708F479C0E0914402C8
:1001A000F0914502309709F4C9C0809149029091BD
:1001B0004A029C01220F331FE20FF31FC081D1813D
:1001C000019690934A0280934902049709F4B1C0C2
:1001D000C2FD66C082E090E00E946805C3FD65C074
:1001E00083E090E00E946805C4FD64C084E090E074
:1001F0000E946805C5FD63C085E090E00E94680527
:10020000C6FD62C086E090E00E946805C7FD61C03F
:1002100087E090E00E946805D0FD60C088E090E033
:100220000E946805D1FD5FC089E090E00E946805EA
:10023000D2FD5EC08AE090E00E946805D3FD5DC0FB
:100240008BE090E00E946805D4FD5CC08CE090E0FB
:100250000E946805D5FD5BC08DE090E00E946805B6
:10026000D6FD5AC08EE090E00E946805C070D0783C
:10027000CD2B09F459C08FE00E942E051092480240
:10028000109247020E948B04DF91CF9108952C5960
:100290003F4F3093480220934702DF91CF9108955A
:1002A00082E00E942E05C3FF9BCF83E00E942E05B3
:1002B000C4FF9CCF84E00E942E05C5FF9DCF85E042
:1002C0000E942E05C6FF9ECF86E00E942E05C7FF26
:1002D0009FCF87E00E942E05D0FFA0CF88E00E942C
:1002E0002E05D1FFA1CF89E00E942E05D2FFA2CF1B
:1002F0008AE00E942E05D3FFA3CF8BE00E942E053B
:10030000D4FFA4CF8CE00E942E05D5FFA5CF8DE0B1
:100310000E942E05D6FFA6CF8EE00E942E05C0704B
:10032000D078CD2B09F0A7CF8FE090E00E94680530
:10033000A5CF10924A02109249024ACF0E94AE0500
:100340009DCF8AE792E0909355028093540280916A
:100350007B028F5F80936702109297020E94D605FE
:1003600008958130C9F090E024E010926D0285E09C
:1003700080936F0220936E02909370028DE692E05C
:1003800090935502809354022F5F2093670210923E
:1003900097020E94D605089582E792E00E949E008F
:1003A00094E025E0E2CF1F930E94D205182F8091A0
:1003B000500290915102A0915202B09153020097C5
:1003C000A105B10521F080FD14C081FD05C0812F7C
:1003D0000E94E4051F9108958D7F809350029093B1
:1003E0005102A0935202B093530280E00E94B101E7
:1003F000EECF8E7F8093500290935102A0935202D1
:10040000B09353020E94A101E2CF0E94AE06109267
:100410005A021092590210925702109256021092EC
:100420005B0210925802109267021092970210928B
:1004300076021092660210924C0210924D021092B7
:100440004E0210924F0210925002109251021092DE
:1004500052021092530281E080934B0208958091E2
:100460007D028B3F41F410924C0210924D0210928B
:100470004E0210924F0280914B02882309F4089596
:1004800010927A0284E080937C0280937B020E9427
:10049000D205282F8091590290915A02892BA9F0F8
:1004A0008091500290915102A0915202B09153025A
:1004B00081608093500290935102A0935202B093B6
:1004C0005302822F0E94E40508958091500290917A
:1004D0005102A0915202B09153020097A105B105BB
:1004E00039F7822F0E94E4058AE792E09093550243
:1004F0008093540280917B028F5F809367021092F9
:1005000097020E94D605089580917D028A3F09F4E2
:10051000A1C08B3F58F08C3F09F446C08D3FE1F1FC
:1005200094E080914B02882389F40895853F09F473
:1005300053C0893FA9F784E080937F0289E08093CC
:10054000800296E080914B02882379F310927A0220
:1005500082E080937C0290937B020E94D205282F38
:100560008091590290915A02892B09F483C080919D
:10057000500290915102A0915202B09153028160B9
:100580008093500290935102A0935202B093530271
:10059000822F0E94E40508958DE090E09093800200
:1005A00080937F0296E0BDCF8FE480937F028AE044
:1005B000809380028EED809381028EE2809382028E
:1005C00082E48093830281E080938402109285020A
:1005D000109286029CE0A5CFE0915C02F0915D0252
:1005E000309709F49DCF808180937F02882309F49E
:1005F0006DC0818180938002882309F46AC0828162
:1006000080938102882309F467C0838180938202EA
:10061000882309F464C0848180938302882309F4C9
:1006200064C0858180938402882309F45BC086813D
:1006300080938502882309F45BC0878180938602BA
:10064000882309F458C0808580938702882391F11C
:100650009DE067CFECE2F2E0AFE7B2E081918D93ED
:1006600082E0EF33F807D1F780913F028093920246
:1006700098E157CF8091500290915102A09152027F
:10068000B09153020097A105B10509F078CF822FF0
:100690000E94E4058AE792E0909355028093540209
:1006A00080917B028F5F80936702109297020E9475
:1006B000D605089588E090E0FC01E158FD4F1192C5
:1006C00082E0E838F807D9F79DE02BCF80E090E092
:1006D000F3CF81E090E0F0CF82E090E0EDCF83E0D7
:1006E00090E0EACF85E090E0E7CF84E090E0E4CFCF
:1006F00086E090E0E1CF87E090E0DECF80917D0260
:10070000823009F440C08330A9F1813051F18091E9
:100710004B02882309F4089510927A0284E08093B2
:100720007C0280937B020E94D205282F809159027F
:1007300090915A02892B89F1809150029091510237
:10074000A0915202B0915302816080935002909325
:100750005102A0935202B0935302822F0E94E405EB
:1007600008958FE792E00E94510080914B02882308
:1007700091F2D2CF8FE792E00E94960080914B02D7
:10078000882349F2C9CF8FE792E00E946C008091E4
:100790004B02882309F4BFCFBFCF809150029091C4
:1007A0005102A0915202B09153020097A105B105E8
:1007B00059F6822F0E94E4058AE792E09093550251
:1007C0008093540280917B028F5F80936702109226
:1007D00097020E94D605089580917D028330D9F159
:1007E000843099F1823059F194E080914B02882352
:1007F00009F4089510927A0282E080937C0290932B
:100800007B020E94D205282F8091590290915A02B2
:10081000892B39F18091500290915102A09152029E
:10082000B091530281608093500290935102A09343
:100830005202B0935302822F0E94E40508958FE77D
:1008400092E00E94640096E0D0CF8FE792E00E9491
:100850009E0095E0CACF8FE792E00E948E0096E05E
:10086000C4CF8091500290915102A0915202B09158
:1008700053020097A105B105A9F6822F0E94E40555
:100880008AE792E0909355028093540280917B0214
:100890008F5F80936702109297020E94D605089599
:1008A00080914B02882351F080917C02863091F038
:1008B000873028F08730E1F08A3091F00895813058
:1008C000E9F08330D9F780917D0287FD1EC00E9438
:1008D0007E03089583E080934B020E94AB0008954D
:1008E000E0919302F0919402309741F309950895B5
:1008F00082E080934B020E94A800089580917D02BF
:1009000087FD06C00E94EC0308950E942F020895FF
:100910000E948402089580914B02833009F008956B
:100920000E94D205282F8091590290915A02892B5A
:10093000A9F08091500290915102A0915202B09181
:10094000530284608093500290935102A09352020C
:10095000B0935302822F0E94E405089580915002C3
:1009600090915102A0915202B09153020097A105BB
:10097000B10539F7822F0E94E40581E00E94B101A0
:100980000895089508952D985E985D985F98289829
:100990002A985B9840984198239A2B98249A2C98EF
:1009A000219A29982B9A2B982A98259A389A569A00
:1009B000559A579A209A539A549A399A229A3A9A5F
:1009C00052985A9AE9E6F0E08081836080833B9AEE
:1009D000439A10928000109281001092C50088E026
:1009E0008093C400E1ECF0E080818861808386E040
:1009F0008093C20080E594E0909365028093640246
:100A00000895CF93DF937894F894C0915E02D091CB
:100A10005F0210925F0210925E022097E9F07894D4
:100A2000C0FF07C0E0916002F0916102309709F0C9
:100A30000995C1FF07C0E0916202F091630230970F
:100A400009F00995C2FFE0CFE0916402F0916502E0
:100A50003097D1F20995D8CF7894D6CF8830B1F1BC
:100A6000893060F08C3061F18D3090F08E3051F132
:100A70008E30E8F08F30B1F4419A0895843021F13E
:100A8000853060F08630D1F0873068F05F9A089545
:100A90008A3091F08B3048F02B9A0895823059F0CB
:100AA000833039F008955D9A0895299A08952D9A12
:100AB00008955B9A0895429A2A9A08955E9A089535
:100AC0002C9A0895409A08955C9A0895289A08955A
:100AD0008830B1F1893060F08C3061F18D3090F068
:100AE0008E3051F18E30E8F08F30B1F44198089596
:100AF000843021F1853060F08630D1F0873068F0A5
:100B00005F9808958A3091F08B3048F02B980895C3
:100B1000823059F0833039F008955D98089529980E
:100B200008952D9808955B98089542982A980895FD
:100B30005E9808952C980895409808955C980895BB
:100B40002898089585B190E096958795929582951D
:100B50008F7089279F7089278170089585B190E2F1
:100B6000892785B9089570936302609362029C019E
:100B7000329522952F7023273F70232720938900D9
:100B80008295807F80938800109285001092840067
:100B9000B198EFE6F0E08081826080838DE0809301
:100BA000810008958FB7F894807808958091540259
:100BB00090915502019690935A0280935902109297
:100BC0005B021092C6000895882311F4F8940895EA
:100BD000789408951F920F920FB60F9211242F93BD
:100BE0008F939F93EF93FF938091560290915702BA
:100BF000892BD9F19091C60080915802882381F405
:100C0000992361F44398439AFF91EF919F918F91BB
:100C10002F910F900FBE0F901F9018959093580230
:100C2000E0915602F09157029193F0935702E093AE
:100C3000560280915802815080935802882311F700
:100C400010925702109256022FB7F89480915E02CC
:100C500090915F02846090935F0280935E0227FD13
:100C600002C0F894CFCF7894CDCF80911C029091A0
:100C70001D029093570280935602BCCF1F920F9291
:100C80000FB60F9211242F938F939F932FB7F89441
:100C900080915E0290915F02826090935F028093E8
:100CA0005E0227FD09C0F8949F918F912F910F90BC
:100CB0000FBE0F901F90189578949F918F912F9150
:100CC0000F900FBE0F901F9018951F920F920FB6A6
:100CD0000F9211242F933F934F935F936F937F93C2
:100CE0008F939F93AF93BF93EF93FF93E09159023C
:100CF000F0915A02309781F080915B028823F1F0E5
:100D0000815080935B02882301F18191F0935A0214
:100D1000E09359028093C600E09AFF91EF91BF9152
:100D2000AF919F918F917F916F915F914F913F9183
:100D30002F910F900FBE0F901F90189580818F5F9D
:100D4000815080935B02882301F710925A0210921F
:100D50005902109267020E94D301DECF4FB7F89478
:100D6000439820E030E080E090E0000000000000C8
:100D70000000000000000000000000000000000073
:100D80000000019653E0883E950779F72F5F3F4FAB
:100D90002436310541F7439A20E030E080E090E0CE
:100DA0000000000000000000000000000000000043
:100DB0000000000000000000019653E0883E950707
:100DC00079F72F5F3F4F81E0243F380739F7809153
:100DD000C00080688093C000E09A8091C100806864
:100DE0008093C100E89A47FD02C0F8940895789472
:100DF000089597FB092E07260AD077FD04D00CD062
:100E000006D000201AF4709561957F4F0895F6F78B
:100E1000909581959F4F0895AA1BBB1B51E107C078
:100E2000AA1FBB1FA617B70710F0A61BB70B881F7A
:100E3000991F5A95A9F780959095BC01CD01089509
:100E400000000000000000000000000000000000A2
:100E50000000000000000000000000000000000092
:100E60000000000000000000000000000000000082
:100E70000000000000000000000000000000000072
:100E80000000000000000000000000000000000062
:100E90000000000000000000000000000000000052
:100EA0000000000000000000000000000000000042
:100EB0000000000000000000000000000000000032
:100EC0000000000000000000000000000000000022
:100ED0000000000000000000000000000000000012
:100EE0000000000000000000000000000000000002
:100EF00000000000000000000000000000000000F2
:100F000000000000000000000000000000000000E1
:100F100000000000000000000000000000000000D1
:100F200000000000000000000000000000000000C1
:100F300000000000000000000000000000000000B1
:100F40001E020A02100216027800000100040005C9
:100F5000201800001480FFFF000008007B020480BE
:100F60000840102020104008800400036485CC76DF
:100F7000AB69C4B0A53DB1A0BEBFC2F10D00110068
:020F800001006E
:040000030000006891
:00000001FF
