:100000000C9434000C94A0050C944F000C944F00F9
:100010000C944F000C944F000C944F000C944F0024
:100020000C944F000C944F000C944F000C947905E5
:100030000C944F000C944F000C944F000C944F0004
:100040000C944F000C944F000C9427050C944F0017
:100050000C944F000C944F000C944F000C944F00E4
:100060000C944F000C944F0011241FBECFEFD1E031
:10007000DEBFCDBF12E0A0E0B1E0E0E9FCE002C0ED
:1000800005900D92AC32B107D9F712E0ACE2B2E0C4
:1000900001C01D92AC37B107E1F70E94D9000C9462
:1000A0000000FC0180910202909103029183808301
:1000B0000895FC0180819181909303028093020254
:1000C0000895FC0180910002909101029183808348
:1000D0000895FC0180819181909301028093000238
:1000E00008950F931F938C010E94E404F80180830C
:1000F0001F910F910895FC01E081E0932C02EE2303
:1001000099F48091020290910302181619060CF0DE
:1001100047C0880F991F90930502809304021092A4
:100120002E0210922D020895E13009F0089582E028
:1001300090E00E94AE0483E090E00E94AE0484E070
:1001400090E00E94AE0485E090E00E94AE0486E05C
:1001500090E00E94AE0487E090E00E94AE0488E048
:1001600090E00E94AE0489E090E00E94AE048AE034
:1001700090E00E94AE048BE090E00E94AE048CE020
:1001800090E00E94AE048DE090E00E94AE048EE00C
:1001900090E00E94AE048FE090E00E94AE040895CB
:1001A0008FEF9FEFB8CF0E940E0408950E940D04B8
:1001B00008950E940F0484E690E066EE70E00E94CD
:1001C000F0040E94B6010E944B0408951F93809191
:1001D0002C02813009F458C020912D0230912E025A
:1001E00080910002909101022817390708F44EC04F
:1001F00080910402909105022FEF8F3F920751F0FA
:10020000019790930502809304020196181619062F
:100210000CF044C010E0E0E0F0E0E85FFD4F8081CA
:100220000E9478041F5F809100029091010264E6B1
:1002300070E00E94340663507040E12FF0E06E17CA
:100240007F0758F760317105C8F41FE0EFE0F0E078
:10025000E85FFD4F808190E00E94AE041150E12FD5
:10026000F0E0809100029091010264E670E00E944B
:10027000340663507040E617F70750F710922E02CD
:1002800010922D020E94D7031F9108952C593F4FC1
:1002900030932E0220932D021F91089581E08093C8
:1002A0002C02ECCF8CE592E09093390280933802D7
:1002B00080915D028F5F80934902109279020E94C3
:1002C000130508958130C9F090E024E010924F02A8
:1002D00085E08093510220935002909352028FE464
:1002E00092E090933902809338022F5F2093490265
:1002F000109279020E941305089584E592E00E940D
:10030000710094E025E0E2CF1F930E940F05182FA3
:100310008091340290913502A0913602B09137025B
:100320000097A105B10521F080FD14C081FD05C035
:10033000812F0E9421051F9108958D7F80933402A3
:1003400090933502A0933602B093370280E00E946A
:100350006201EECF8E7F8093340290933502A0939A
:100360003602B09337020E945201E2CF0E94E905A3
:1003700010923E0210923D0210923B0210923A02FD
:1003800010923F0210923C021092490210927902A0
:1003900010925802109248021092300210923102CC
:1003A00010923202109233021092340210923502EF
:1003B000109236021092370281E080932F02089546
:1003C00080915F028B3F41F4109230021092310213
:1003D000109232021092330280912F02882309F486
:1003E000089510925C0284E080935E0280935D0227
:1003F0000E940F05282F80913D0290913E02892B8B
:10040000A9F08091340290913502A0913602B0910A
:10041000370281608093340290933502A0933602B4
:10042000B0933702822F0E942105089580913402F3
:1004300090913502A0913602B09137020097A10544
:10044000B10539F7822F0E9421058CE592E0909347
:1004500039028093380280915D028F5F8093490258
:10046000109279020E941305089580915F028A3FDD
:1004700009F448C08B3F58F08C3F09F453C08D3FBE
:10048000C9F194E080912F02882371F40895893F87
:10049000C1F784E08093610289E08093620296E074
:1004A00080912F02882391F310925C0282E0809366
:1004B0005E0290935D020E940F05282F80913D02FD
:1004C00090913E02892B09F445C0809134029091AD
:1004D0003502A0913602B0913702816080933402D8
:1004E00090933502A0933602B0933702822F0E9478
:1004F000210508958DE090E090936202809361025F
:1005000096E0C0CFE7E1F2E0A1E6B2E081918D9301
:1005100082E0EA32F807D1F780912A0280937402D0
:1005200098E1B0CF85EF809361028AE88093620200
:1005300088EA8093630283EC8093640281E4809371
:10054000650281E080936602109267021092680251
:100550009CE098CF8091340290913502A0913602B0
:10056000B09137020097A105B10509F0B6CF822FEF
:100570000E9421058CE592E0909339028093380225
:1005800080915D028F5F80934902109279020E94F0
:100590001305089580915F02823009F440C08330D2
:1005A000A9F1813051F180912F02882309F4089537
:1005B00010925C0284E080935E0280935D020E9450
:1005C0000F05282F80913D0290913E02892B89F1E1
:1005D0008091340290913502A0913602B091370299
:1005E00081608093340290933502A0933602B093D9
:1005F0003702822F0E942105089581E692E00E9431
:100600007B0080912F02882391F2D2CF81E692E085
:100610000E94690080912F02882349F2C9CF81E6A8
:1006200092E00E94590080912F02882309F4BFCFE5
:10063000BFCF8091340290913502A0913602B091E3
:1006400037020097A105B10559F6822F0E942105B6
:100650008CE592E0909339028093380280915D029C
:100660008F5F80934902109279020E9413050895CA
:1006700080915F028330D9F1843099F1823059F151
:1006800094E080912F02882309F4089510925C026F
:1006900082E080935E0290935D020E940F05282FF6
:1006A00080913D0290913E02892B39F18091340274
:1006B00090913502A0913602B0913702816080930B
:1006C000340290933502A0933602B0933702822F02
:1006D0000E942105089581E692E00E94510096E073
:1006E000D0CF81E692E00E94710095E0CACF81E60A
:1006F00092E00E94610096E0C4CF80913402909114
:100700003502A0913602B09137020097A105B105DC
:10071000A9F6822F0E9421058CE592E09093390280
:100720008093380280915D028F5F8093490210921E
:1007300079020E941305089580912F02882351F0B9
:1007400080915E02863091F0873028F08730E1F0AA
:100750008A3091F008958130E9F08330D9F78091A3
:100760005F0287FD1EC00E94CA02089583E0809345
:100770002F020E94D6000895E0917502F091760252
:10078000309741F30995089582E080932F020E94EB
:10079000D300089580915F0287FD06C00E94380350
:1007A00008950E94E00108950E9435020895809105
:1007B0002F02833009F008950E940F05282F8091A1
:1007C0003D0290913E02892BA9F0809134029091D4
:1007D0003502A0913602B0913702846080933402D2
:1007E00090933502A0933602B0933702822F0E9475
:1007F000210508958091340290913502A09136022E
:10080000B09137020097A105B10539F7822F0E94F8
:10081000210581E00E9462010895089508952D98B0
:100820005E985D985F9828982A985B9840984198C0
:10083000239A2B98249A2C98219A29982B9A2B98B2
:100840002A98259A389A569A559A579A209A539ADE
:10085000399A229A52985A9AE9E6F0E080818360A8
:100860008083549A5C9A10928000109281001092BA
:10087000C50088E08093C400E1ECF0E080818861ED
:10088000808386E08093C2008CE993E090934702D6
:10089000809346020895CF93DF937894F894C091A3
:1008A0004002D091410210924102109240022097E2
:1008B000E9F07894C0FF07C0E0914202F091430252
:1008C000309709F00995C1FF07C0E0914402F0910B
:1008D0004502309709F00995C2FFE0CFE09146024A
:1008E000F09147023097D1F20995D8CF7894D6CFBE
:1008F000893091F18A3060F08C3041F18D3090F088
:100900008E3031F18E30D0F08F3009F4419A089555
:10091000863001F1873060F0873091F08830B9F788
:10092000289A08958A3081F08B3089F72B9A0895A0
:10093000833041F0853059F75D9A08952D9A0895D6
:100940005F9A08955B9A08952A9A08952C9A0895BB
:10095000409A08955E9A0895299A0895893091F1F0
:100960008A3060F08C3041F18D3090F08E3031F172
:100970008E30D0F08F3009F441980895863001F11F
:10098000873060F0873091F08830B9F72898089563
:100990008A3081F08B3089F72B980895833041F0AD
:1009A000853059F75D9808952D9808955F980895BA
:1009B0005B9808952A9808952C9808954098089572
:1009C0005E9808952998089585B190E09695879549
:1009D000929582958F7089279F70892781700895DD
:1009E00070934502609344029C01329522952F70CA
:1009F00023273F702327209389008295807F80934F
:100A000088001092850010928400B198EFE6F0E023
:100A10008081826080838DE08093810008958FB70C
:100A2000F894807808958091380290913902019667
:100A300090933E0280933D0210923F021092C600B6
:100A40000895882311F4F8940895789408951F92D6
:100A50000F920FB60F9211242F933F938F939F9372
:100A6000EF93FF9320913A0230913B02211531051B
:100A7000B1F19091C60080913C02882311F49093CB
:100A80003C02F9019193F0933B02E0933A0280918A
:100A90003C02815080933C02882391F410923B02E7
:100AA00010923A022FB7F89480914002909141023F
:100AB0008460909341028093400227FD0EC0F89419
:100AC0005C985C9AFF91EF919F918F913F912F914C
:100AD0000F900FBE0F901F9018957894F1CF8091D2
:100AE00006029091070280933A0290933B029C0188
:100AF000C0CF1F920F920FB60F9211242F938F9396
:100B00009F932FB7F89480914002909141028260A8
:100B1000909341028093400227FD09C0F8949F9171
:100B20008F912F910F900FBE0F901F901895789472
:100B30009F918F912F910F900FBE0F901F9018953E
:100B40001F920F920FB60F9211242F933F934F9342
:100B50005F936F937F938F939F93AF93BF93EF9325
:100B6000FF93E0913D02F0913E02309781F0809139
:100B70003F028823F1F0815080933F02882301F1E6
:100B80008191F0933E02E0933D028093C600E09A8B
:100B9000FF91EF91BF91AF919F918F917F916F9155
:100BA0005F914F913F912F910F900FBE0F901F902B
:100BB000189580818F5F815080933F02882301F7D1
:100BC00010923E0210923D02109249020E9484014E
:100BD000DECF4FB7F8945C9820E030E080E090E002
:100BE0000000000000000000000000000000000005
:100BF0000000000000000000019653E0883E9507C9
:100C000079F72F5F3F4F2436310541F75C9A20E09A
:100C100030E080E090E000000000000000000000F4
:100C2000000000000000000000000000000001962D
:100C300053E0883E950779F72F5F3F4F81E0243FCF
:100C4000380739F78091C00080688093C000E09A2F
:100C50008091C10080688093C100E89A47FD02C07E
:100C6000F894089578940895AA1BBB1B51E107C01E
:100C7000AA1FBB1FA617B70710F0A61BB70B881F2C
:100C8000991F5A95A9F780959095BC01CD010895BB
:100C90000000000000000000000000000000000054
:100CA0000000000000000000000000000000000044
:100CB0000000000000000000000000000000000034
:100CC0000000000000000000000000000000000024
:100CD0000000000000000000000000000000000014
:100CE0000000000000000000000000000000000004
:100CF00000000000000000000000000000000000F4
:100D000000000000000000000000000000000000E3
:100D100000000000000000000000000000000000D3
:100D200000000000000000000000000000000000C3
:100D300000000000000000000000000000000000B3
:100D400000000000000000000000000000000000A3
:100D50000000000000000000000000000000000093
:100D60000000000000000000000000000000000083
:100D70000000000000000000000000000000000073
:100D80000000000000000000000000000000000063
:100D9000B0040D00FFFF5D020209030A040B050CFD
:100DA000060D070E080F096485CC76AB69C4B0A5A3
:0C0DB0003DB1A0BEBFC2F10D001100015A
:040000030000006891
:00000001FF
