:100000000C9434000C9495050C944F000C944F0004
:100010000C944F000C944F000C944F000C944F0024
:100020000C944F000C944F000C944F000C946E05F0
:100030000C944F000C944F000C944F000C944F0004
:100040000C944F000C944F000C941C050C944F0022
:100050000C944F000C944F000C944F000C944F00E4
:100060000C944F000C944F0011241FBECFEFD1E031
:10007000DEBFCDBF12E0A0E0B1E0E2E5FCE002C0EF
:1000800005900D92AA37B107D9F712E0AAE7B2E0BE
:1000900001C01D92AE3DB107E1F70E949C000C9497
:1000A0000000FC01808180937A02882389F480918A
:1000B0005E0290915F02181619065CF4880F991F72
:1000C000909361028093600210927C0210927B02F6
:1000D00008958FEF9FEFF4CFFC0180915E02909125
:1000E0005F02918380830895FC01808191819093C8
:1000F0005F0280935E020895FC0180915C02909102
:100100005D02918380830895FC01808191819093A9
:100110005D0280935C0208950F931F938C010E94EF
:10012000D904F80180831F910F9108950E94030460
:1001300008950E94020408950E94040484E690E059
:100140006BEB70E00E94E5040E94AB010E9440044A
:1001500082E092E09093A3028093A20280E292E078
:100160009093A5028093A4028EE392E09093A7025D
:100170008093A602089580917A02813009F447C0E5
:1001800020917B0230917C0280915C0290915D0213
:1001900028173907E8F12091A8023091A9022031EF
:1001A0003105ECF537FD41C080916002909161020C
:1001B0004FEF8F3F940749F001979093610280932E
:1001C0006002019618161906BCF580910002909104
:1001D00001028130910509F44AC0892BD9F11092AE
:1001E0007C0210927B020E94CC03809100029091CD
:1001F00001028130910521F1892B49F48091A802F7
:100200009091A90201979093A9028093A802089562
:100210002C593F4F30937C0220937B02089510921B
:1002200001021092000237FFBFCF81E090E090936F
:10023000010280930002B8CF81E080937A02CFCF91
:100240008091A8029091A90201969093A9028093AF
:10025000A8020895E091A802F091A902EE0FFF1FF5
:10026000EE5FFD4F808191810E94A304B8CF220FE1
:10027000331FE091A202F091A302E20FF31F8081ED
:100280000E946D048091000290910102A6CF8EEB36
:1002900092E090938702809386028091BF028F5FE5
:1002A0008093AB021092DB020E9408050895813012
:1002B000C9F090E024E01092B10285E08093B3028F
:1002C0002093B2029093B40281EB92E09093870264
:1002D000809386022F5F2093AB021092DB020E9474
:1002E0000805089586EB92E00E948C0094E025E0DA
:1002F000E2CF1F930E940405182F809182029091F3
:100300008302A0918402B09185020097A105B105F6
:1003100021F080FD14C081FD05C0812F0E941605CB
:100320001F9108958D7F8093820290938302A09302
:100330008402B093850280E00E945701EECF8E7F49
:100340008093820290938302A0938402B0938502EB
:100350000E944701E2CF0E94DE0510928C021092AB
:100360008B02109289021092880210928D021092D4
:100370008A021092AB021092DB021092BA02109223
:10038000AA0210927E0210927F02109280021092B6
:1003900081021092820210928302109284021092C3
:1003A000850281E080937D0208958091C1028B3F98
:1003B00041F410927E0210927F02109280021092FD
:1003C000810280917D02882309F408951092BE0273
:1003D00084E08093C0028093BF020E940405282F0E
:1003E00080918B0290918C02892BA9F080918202DE
:1003F00090918302A0918402B091850281608093E4
:10040000820290938302A0938402B0938502822F8C
:100410000E94160508958091820290918302A09116
:100420008402B09185020097A105B10539F7822FAA
:100430000E9416058EEB92E09093870280938602CD
:100440008091BF028F5F8093AB021092DB020E940B
:10045000080508958091C1028A3F09F448C08B3F86
:1004600058F08C3F09F453C08D3FC9F194E080915E
:100470007D02882371F40895893FC1F784E0809359
:10048000C30289E08093C40296E080917D028823B4
:1004900091F31092BE0282E08093C0029093BF025B
:1004A0000E940405282F80918B0290918C02892B49
:1004B00009F445C08091820290918302A091840248
:1004C000B091850281608093820290938302A09311
:1004D0008402B0938502822F0E94160508958DE054
:1004E00090E09093C4028093C30296E0C0CFE4E60C
:1004F000F2E0A3ECB2E081918D9382E0E737F80758
:10050000D1F7809177028093D60298E1B0CF85EF42
:100510008093C3028AE88093C40288EA8093C5026C
:1005200083EC8093C60281E48093C70281E08093CC
:10053000C8021092C9021092CA029CE098CF809122
:10054000820290918302A0918402B091850200976B
:10055000A105B10509F0B6CF822F0E9416058EEBDA
:1005600092E090938702809386028091BF028F5F12
:100570008093AB021092DB020E94080508958091DF
:10058000C102823009F440C08330A9F1813051F1B9
:1005900080917D02882309F408951092BE0284E0C0
:1005A0008093C0028093BF020E940405282F80918F
:1005B0008B0290918C02892B89F18091820290911B
:1005C0008302A0918402B0918502816080938202AF
:1005D00090938302A0938402B0938502822F0E949D
:1005E0001605089583EC92E00E94510080917D02EF
:1005F000882391F2D2CF83EC92E00E948400809114
:100600007D02882349F2C9CF83EC92E00E947400F6
:1006100080917D02882309F4BFCFBFCF80918202F1
:1006200090918302A0918402B09185020097A10568
:10063000B10559F6822F0E9416058EEB92E0909339
:100640008702809386028091BF028F5F8093AB0206
:100650001092DB020E94080508958091C102833048
:10066000D9F1843099F1823059F194E080917D0282
:10067000882309F408951092BE0282E08093C0029C
:100680009093BF020E940405282F80918B029091C5
:100690008C02892B39F18091820290918302A09182
:1006A0008402B091850281608093820290938302DC
:1006B000A0938402B0938502822F0E9416050895AC
:1006C00083EC92E00E946C0096E0D0CF83EC92E045
:1006D0000E948C0095E0CACF83EC92E00E947C00DF
:1006E00096E0C4CF8091820290918302A09184020F
:1006F000B09185020097A105B105A9F6822F0E944D
:1007000016058EEB92E0909387028093860280918B
:10071000BF028F5F8093AB021092DB020E9408053C
:10072000089580917D02882351F08091C002863027
:1007300091F0873028F08730E1F08A3091F0089509
:100740008130E9F08330D9F78091C10287FD1EC066
:100750000E94BF02089583E080937D020E94990069
:100760000895E091D702F091D802309741F30995AE
:10077000089582E080937D020E9496000895809102
:10078000C10287FD06C00E942D0308950E94D50175
:1007900008950E942A02089580917D02833009F015
:1007A00008950E940405282F80918B0290918C025D
:1007B000892BA9F08091820290918302A0918402FA
:1007C000B091850284608093820290938302A0930B
:1007D0008402B0938502822F0E94160508958091AD
:1007E000820290918302A0918402B09185020097C9
:1007F000A105B10539F7822F0E94160581E00E94FC
:1008000057010895089508952D985E985D985F9812
:1008100028982A985B9840984198239A2B98249A74
:100820002C98219A29982B9A2B982A98259A389AAD
:10083000569A559A579A209A539A399A229A5298C8
:100840005A9AE9E6F0E0808183608083549A5C9A4A
:1008500010928000109281001092C50088E0809371
:10086000C400E1ECF0E080818861808386E08093C1
:10087000C20081E993E090939502809394020895D9
:10088000CF93DF937894F894C0918E02D0918F0229
:1008900010928F0210928E022097E9F07894C0FF98
:1008A00007C0E0919002F0919102309709F009950C
:1008B000C1FF07C0E0919202F0919302309709F0D6
:1008C0000995C2FFE0CFE0919402F0919502309734
:1008D000D1F20995D8CF7894D6CF893091F18A306A
:1008E00060F08C3041F18D3090F08E3031F18E30EF
:1008F000D0F08F3009F4419A0895863001F18730A5
:1009000060F0873091F08830B9F7289A08958A30DE
:1009100081F08B3089F72B9A0895833041F0853030
:1009200059F75D9A08952D9A08955F9A08955B9AF4
:1009300008952A9A08952C9A0895409A08955E9AE7
:100940000895299A0895893091F18A3060F08C30A9
:1009500041F18D3090F08E3031F18E30D0F08F300B
:1009600009F441980895863001F1873060F08730AE
:1009700091F08830B9F7289808958A3081F08B304B
:1009800089F72B980895833041F0853059F75D98A9
:1009900008952D9808955F9808955B9808952A9872
:1009A00008952C980895409808955E980895299880
:1009B000089585B190E096958795929582958F7070
:1009C00089279F708927817008957093930260939F
:1009D00092029C01329522952F7023273F70232786
:1009E000209389008295807F8093880010928500F3
:1009F00010928400B198EFE6F0E0808182608083FD
:100A00008DE08093810008958FB7F89480780895E1
:100A10008091860290918702019690938C02809338
:100A20008B0210928D021092C6000895882311F453
:100A3000F8940895789408951F920F920FB60F922C
:100A400011242F933F938F939F93EF93FF932091C4
:100A500088023091890221153105B1F19091C600CB
:100A600080918A02882311F490938A02F90191936C
:100A7000F0938902E093880280918A0281508093EA
:100A80008A02882391F410928902109288022FB76B
:100A9000F89480918E0290918F02846090938F02DF
:100AA00080938E0227FD0EC0F8945C985C9AFF91AB
:100AB000EF919F918F913F912F910F900FBE0F90CB
:100AC0001F9018957894F1CF809162029091630203
:100AD00080938802909389029C01C0CF1F920F924D
:100AE0000FB60F9211242F938F939F932FB7F894E3
:100AF00080918E0290918F02826090938F028093FA
:100B00008E0227FD09C0F8949F918F912F910F902D
:100B10000FBE0F901F90189578949F918F912F91F1
:100B20000F900FBE0F901F9018951F920F920FB647
:100B30000F9211242F933F934F935F936F937F9363
:100B40008F939F93AF93BF93EF93FF93E0918B02AB
:100B5000F0918C02309781F080918D028823F1F022
:100B6000815080938D02882301F18191F0938C0252
:100B7000E0938B028093C600E09AFF91EF91BF91C2
:100B8000AF919F918F917F916F915F914F913F9125
:100B90002F910F900FBE0F901F90189580818F5F3F
:100BA000815080938D02882301F710928C0210925D
:100BB0008B021092AB020E947901DECF4FB7F894FE
:100BC0005C9820E030E080E090E000000000000051
:100BD0000000000000000000000000000000000015
:100BE0000000019653E0883E950779F72F5F3F4F4D
:100BF0002436310541F75C9A20E030E080E090E057
:100C000000000000000000000000000000000000E4
:100C10000000000000000000019653E0883E9507A8
:100C200079F72F5F3F4F81E0243F380739F78091F4
:100C3000C00080688093C000E09A8091C100806805
:100C40008093C100E89A47FD02C0F8940895789413
:020C5000089505
:100C52000000000000000000000000000000000092
:100C62000000000000000000000000000000000082
:100C72000000000000000000000000000000000072
:100C82000000000000000000000000000000000062
:100C92000000000000000000000000000000000052
:100CA2000000000000000000000000000000000042
:100CB2000000000000000000000000000000000032
:100CC2000000000000000000000000000000000022
:100CD2000000000000000000000000000000000012
:100CE2000000000000000000000000000000000002
:100CF20000000000000000000000000000000000F2
:100D020000000000000000000000000000000000E1
:100D120000000000000000000000000000000000D1
:100D220000000000000000000000000000000000C1
:100D320000000000000000000000000000000000B1
:100D420000000000000000000000000000000000A1
:100D5200010002000300040005000600070008006D
:100D62000F000E000D000C000B000A00090000002D
:100D7200000000000000000001000100010001006D
:100D8200010001000100010001000100010000005A
:100D9200000000000000010001000100010001004C
:100DA200010001000100010001000100B0040D007A
:100DB200FFFFBF026485CC76AB69C4B0A53DB1A08C
:0A0DC200BEBFC2F10D0011000100D8
:040000030000006891
:00000001FF
