:100000000C9434000C9483050C944F000C944F0016
:100010000C944F000C944F000C944F000C944F0024
:100020000C944F000C944F000C944F000C945C0502
:100030000C944F000C944F000C944F000C944F0004
:100040000C944F000C944F000C940A050C944F0034
:100050000C944F000C944F000C944F000C944F00E4
:100060000C944F000C944F0011241FBECFEFD1E031
:10007000DEBFCDBF12E0A0E0B1E0E6E5FCE002C0EB
:1000800005900D92AE31B107D9F712E0AEE1B2E0C2
:1000900001C01D92AE36B107E1F70E94D2000C9468
:1000A0000000FC0180910202909103029183808301
:1000B0000895FC0180819181909303028093020254
:1000C0000895FC0180910002909101029183808348
:1000D0000895FC0180819181909301028093000238
:1000E00008950F931F938C010E94C704F801808329
:1000F0001F910F910895FC01E081E0931E02EE2311
:1001000079F4809100029091010264E670E00E940F
:1001100017066350704070930502609304020895BF
:10012000E13009F0089582E090E00E94940483E0B9
:1001300090E00E94940484E090E00E94940485E0A2
:1001400090E00E94940486E090E00E94940487E08E
:1001500090E00E94940488E090E00E94940489E07A
:1001600090E00E9494048AE090E00E9494048BE066
:1001700090E00E9494048CE090E00E9494048DE052
:1001800090E00E9494048EE090E00E9494048FE03E
:1001900090E00E94940408950E94F70308950E943D
:1001A000F60308950E94F80384E690E06FED70E096
:1001B0000E94D3040E949F010E94340408951F935B
:1001C00080911E02813009F450C0209100023091CC
:1001D000010280911F02909120028217930778F408
:1001E000C90164E670E00E94170663507040709386
:1001F000200260931F0270930502609304028091B5
:100200000402909105024FEF8F3F940749F0019748
:1002100090930502809304020196181619063CF586
:10022000C90164E670E00E941706162F13501230C1
:1002300050F0812F0E94610411501230D0F72091AC
:10024000000230910102C90164E670E00E941706C5
:10025000162F1350103138F4812F90E00E9494042F
:100260001F5F1031C8F30E94C0031F91089581E001
:1002700080931E02F8CF8EE492E090932B0280933D
:100280002A0280914F028F5F80933B0210926B0293
:100290000E94F60408958130C9F090E024E01092A5
:1002A000410285E0809343022093420290934402EE
:1002B00081E492E090932B0280932A022F5F209397
:1002C0003B0210926B020E94F604089586E492E0CD
:1002D0000E94710094E025E0E2CF1F930E94F20497
:1002E000182F8091260290912702A0912802B091A8
:1002F00029020097A105B10521F080FD14C081FD00
:1003000005C0812F0E9404051F9108958D7F809361
:10031000260290932702A0932802B093290280E03E
:100320000E944B01EECF8E7F80932602909327028E
:10033000A0932802B09329020E943B01E2CF0E94C1
:10034000CC051092300210922F0210922D021092C2
:100350002C021092310210922E0210923B02109247
:100360006B0210924A0210923A02109222021092EC
:10037000230210922402109225021092260210925B
:100380002702109228021092290281E08093210214
:100390000895809151028B3F41F4109222021092F5
:1003A00023021092240210922502809121028823B8
:1003B00009F4089510924E0284E0809350028093D5
:1003C0004F020E94F204282F80912F029091300258
:1003D000892BA9F08091260290912702A0912802F2
:1003E000B091290281608093260290932702A09306
:1003F0002802B0932902822F0E940405089580915B
:10040000260290912702A0912802B091290200971C
:10041000A105B10539F7822F0E9404058EE492E010
:1004200090932B0280932A0280914F028F5F8093DA
:100430003B0210926B020E94F604089580915102D3
:100440008A3F09F448C08B3F58F08C3F09F453C0F1
:100450008D3FC9F194E080912102882371F40895C1
:10046000893FC1F784E08093530289E0809354026E
:1004700096E080912102882391F310924E0282E04F
:100480008093500290934F020E94F204282F809193
:100490002F0290913002892B09F445C080912602E9
:1004A00090912702A0912802B09129028160809347
:1004B000260290932702A0932802B0932902822F4C
:1004C0000E94040508958DE090E09093540280937B
:1004D000530296E0C0CFE8E0F2E0A3E5B2E08191FC
:1004E0008D9382E0EB31F807D1F780911B02809366
:1004F000660298E1B0CF85EF809353028AE880933B
:10050000540288EA8093550283EC8093560281E47A
:100510008093570281E08093580210925902109202
:100520005A029CE098CF8091260290912702A091D8
:100530002802B09129020097A105B10509F0B6CFB4
:10054000822F0E9404058EE492E090932B02809308
:100550002A0280914F028F5F80933B0210926B02C0
:100560000E94F604089580915102823009F440C03F
:100570008330A9F1813051F180912102882309F45F
:10058000089510924E0284E08093500280934F02AF
:100590000E94F204282F80912F0290913002892B23
:1005A00089F18091260290912702A0912802B091B2
:1005B000290281608093260290932702A09328024B
:1005C000B0932902822F0E940405089583E592E0EA
:1005D0000E947B0080912102882391F2D2CF83E593
:1005E00092E00E94690080912102882349F2C9CFDC
:1005F00083E592E00E94590080912102882309F44A
:10060000BFCFBFCF8091260290912702A0912802F0
:10061000B09129020097A105B10559F6822F0E94D9
:1006200004058EE492E090932B0280932A0280913D
:100630004F028F5F80933B0210926B020E94F60480
:100640000895809151028330D9F1843099F182303C
:1006500059F194E080912102882309F408951092C1
:100660004E0282E08093500290934F020E94F20467
:10067000282F80912F0290913002892B39F180919F
:10068000260290912702A0912802B0912902816050
:100690008093260290932702A0932802B093290208
:1006A000822F0E940405089583E592E00E94510084
:1006B00096E0D0CF83E592E00E94710095E0CACF2A
:1006C00083E592E00E94610096E0C4CF809126020B
:1006D00090912702A0912802B09129020097A105CC
:1006E000B105A9F6822F0E9404058EE492E0909352
:1006F0002B0280932A0280914F028F5F80933B02EE
:1007000010926B020E94F6040895809121028823C2
:1007100051F080915002863091F0873028F0873078
:10072000E1F08A3091F008958130E9F08330D9F713
:100730008091510287FD1EC00E94B302089583E09C
:10074000809321020E94CF000895E0916702F0910A
:100750006802309741F30995089582E08093210261
:100760000E94CC0008958091510287FD06C00E942E
:10077000210308950E94C90108950E941E02089550
:1007800080912102833009F008950E94F204282FFD
:1007900080912F0290913002892BA9F0809126023E
:1007A00090912702A0912802B09129028460809341
:1007B000260290932702A0932802B0932902822F49
:1007C0000E94040508958091260290912702A0912D
:1007D0002802B09129020097A105B10539F7822FAF
:1007E0000E94040581E00E944B0108950895089538
:1007F0002D985E985D985F9828982A985B98409805
:100800004198239A2B98249A2C98219A29982B9ACC
:100810002B982A98259A389A569A559A579A209A38
:10082000539A399A229A52985A9AE9E6F0E08081CE
:1008300083608083549A5C9A1092800010928100A9
:100840001092C50088E08093C400E1ECF0E0808164
:100850008861808386E08093C20085E893E090936E
:100860003902809338020895CF93DF937894F894F7
:10087000C0913202D09133021092330210923202B0
:100880002097E9F07894C0FF07C0E0913402F0911E
:100890003502309709F00995C1FF07C0E091360293
:1008A000F0913702309709F00995C2FFE0CFE0914F
:1008B0003802F09139023097D1F20995D8CF789467
:1008C000D6CF893079F18A3048F08D3029F18E30D9
:1008D00078F08E30E9F08F30B9F00895863001F16C
:1008E000873060F0873091F08830B9F7289A089502
:1008F0008B3081F08C3089F72C9A0895833071F019
:10090000853059F75D9A0895419A08955F9A089540
:10091000409A08952B9A08952D9A08955B9A089508
:100920005E9A0895299A0895893079F18A3048F0BD
:100930008D3029F18E3078F08E30E9F08F30B9F0BB
:100940000895863001F1873060F0873091F088306B
:10095000B9F7289808958B3081F08C3089F72C985E
:100960000895833071F0853059F75D980895419866
:1009700008955F980895409808952B9808952D98AC
:1009800008955B9808955E9808952998089585B113
:1009900090E096958795929582958F7089279F70A4
:1009A00089278170089570933702609336029C0105
:1009B000329522952F7023273F702327209389009B
:1009C0008295807F80938800109285001092840029
:1009D000B198EFE6F0E08081826080838DE08093C3
:1009E000810008958FB7F8948078089580912A0245
:1009F00090912B0201969093300280932F021092D7
:100A000031021092C6000895882311F4F8940895D5
:100A1000789408951F920F920FB60F9211242F937E
:100A20003F938F939F93EF93FF9320912C023091EC
:100A30002D0221153105B1F19091C60080912E0251
:100A4000882311F490932E02F9019193F0932D02D3
:100A5000E0932C0280912E02815080932E028823F5
:100A600091F410922D0210922C022FB7F8948091DD
:100A70003202909133028460909333028093320269
:100A800027FD0EC0F8945C985C9AFF91EF919F91BE
:100A90008F913F912F910F900FBE0F901F9018953F
:100AA0007894F1CF809106029091070280932C02F6
:100AB00090932D029C01C0CF1F920F920FB60F9200
:100AC00011242F938F939F932FB7F8948091320224
:100AD000909133028260909333028093320227FD1B
:100AE00009C0F8949F918F912F910F900FBE0F9096
:100AF0001F90189578949F918F912F910F900FBE12
:100B00000F901F9018951F920F920FB60F921124FD
:100B10002F933F934F935F936F937F938F939F9305
:100B2000AF93BF93EF93FF93E0912F02F0913002C8
:100B3000309781F0809131028823F1F081508093C9
:100B40003102882301F18191F0933002E0932F026A
:100B50008093C600E09AFF91EF91BF91AF919F9172
:100B60008F917F916F915F914F913F912F910F9056
:100B70000FBE0F901F90189580818F5F81508093DA
:100B80003102882301F71092300210922F02109246
:100B90003B020E946D01DECF4FB7F8945C9820E0D5
:100BA00030E080E090E00000000000000000000065
:100BB000000000000000000000000000000001969E
:100BC00053E0883E950779F72F5F3F4F2436310574
:100BD00041F75C9A20E030E080E090E00000000007
:100BE0000000000000000000000000000000000005
:100BF00000000000019653E0883E950779F72F5FCB
:100C00003F4F81E0243F380739F78091C00080686A
:100C10008093C000E09A8091C10080688093C100F9
:100C2000E89A47FD02C0F894089578940895AA1BA5
:100C3000BB1B51E107C0AA1FBB1FA617B70710F0C7
:100C4000A61BB70B881F991F5A95A9F780959095F9
:060C5000BC01CD01089576
:100C5600000000000000000000000000000000008E
:100C6600000000000000000000000000000000007E
:100C7600000000000000000000000000000000006E
:100C8600000000000000000000000000000000005E
:100C9600000000000000000000000000000000004E
:100CA600000000000000000000000000000000003E
:100CB600000000000000000000000000000000002E
:100CC600000000000000000000000000000000001E
:100CD600000000000000000000000000000000000E
:100CE60000000000000000000000000000000000FE
:100CF60000000000000000000000000000000000EE
:100D060000000000000000000000000000000000DD
:100D160000000000000000000000000000000000CD
:100D260000000000000000000000000000000000BD
:100D360000000000000000000000000000000000AD
:100D4600000000000000000000000000000000009D
:100D5600B0040D00FFFF4F026485CC76AB69C4B0CA
:0E0D6600A53DB1A0BEBFC2F10D0011000100FD
:040000030000006891
:00000001FF
